{"contracts/MeapRegistry.sol":{"MeapRegistry":{"abi":[{"anonymous":false,"inputs":[{"indexed":true,"internalType":"address","name":"owner","type":"address"},{"indexed":true,"internalType":"bytes32","name":"agentId","type":"bytes32"},{"indexed":false,"internalType":"string","name":"kind","type":"string"},{"indexed":false,"internalType":"string","name":"payload","type":"string"}],"name":"AgentAction","type":"event"},{"anonymous":false,"inputs":[{"indexed":true,"internalType":"address","name":"owner","type":"address"},{"indexed":true,"internalType":"bytes32","name":"agentId","type":"bytes32"}],"name":"AgentRegistered","type":"event"},{"anonymous":false,"inputs":[{"indexed":true,"internalType":"address","name":"tipper","type":"address"},{"indexed":true,"internalType":"address","name":"owner","type":"address"},{"indexed":true,"internalType":"bytes32","name":"agentId","type":"bytes32"},{"indexed":false,"internalType":"uint256","name":"amount","type":"uint256"}],"name":"AgentTipped","type":"event"},{"inputs":[{"internalType":"string","name":"kind","type":"string"},{"internalType":"string","name":"payload","type":"string"}],"name":"act","outputs":[],"stateMutability":"nonpayable","type":"function"},{"inputs":[{"internalType":"address","name":"","type":"address"}],"name":"agentIdByOwner","outputs":[{"internalType":"bytes32","name":"","type":"bytes32"}],"stateMutability":"view","type":"function"},{"inputs":[{"internalType":"bytes32","name":"agentId","type":"bytes32"}],"name":"register","outputs":[],"stateMutability":"nonpayable","type":"function"},{"inputs":[{"internalType":"address","name":"owner","type":"address"},{"internalType":"bytes32","name":"agentId","type":"bytes32"}],"name":"tip","outputs":[],"stateMutability":"payable","type":"function"}],"evm":{"bytecode":{"linkReferences":{},"object":"608060405234801561001057600080fd5b50610539806100206000396000f3fe60806040526004361061003f5760003560e01c8063c4045ca614610044578063e1fa8e8414610083578063ea1d8096146100a5578063fd91fd10146100c5575b600080fd5b34801561005057600080fd5b5061007161005f36600461038e565b60006020819052908152604090205481565b60405190815260200160405180910390f35b34801561008f57600080fd5b506100a361009e3660046103b0565b6100d8565b005b3480156100b157600080fd5b506100a36100c0366004610412565b610196565b6100a36100d336600461047e565b610233565b806101135760405162461bcd60e51b815260206004820152600660248201526518985917da5960d21b60448201526064015b60405180910390fd5b33600090815260208190526040902054156101595760405162461bcd60e51b815260206004820152600660248201526565786973747360d01b604482015260640161010a565b33600081815260208190526040808220849055518392917f2f1f603fdbf809c5197d557d6fe61c1fd7f3ce5e6d39cc41367006956574943791a350565b33600090815260208190526040902054806101e45760405162461bcd60e51b815260206004820152600e60248201526d1b9bdd17dc9959da5cdd195c995960921b604482015260640161010a565b80336001600160a01b03167f5db528a6c3f96747cd725c5fb451cb8adbd8d3776192de319e907454270dff698787878760405161022494939291906104d1565b60405180910390a35050505050565b6001600160a01b0382166000908152602081905260409020548114801561025957508015155b6102915760405162461bcd60e51b815260206004820152600960248201526818985917d859d95b9d60ba1b604482015260640161010a565b6000826001600160a01b03163460405160006040518083038185875af1925050503d80600081146102de576040519150601f19603f3d011682016040523d82523d6000602084013e6102e3565b606091505b505090508061031f5760405162461bcd60e51b81526020600482015260086024820152671d1a5c17d9985a5b60c21b604482015260640161010a565b81836001600160a01b0316336001600160a01b03167f4ea58b343db870dc3ad0de2a1b2284d71239d24f159d676b04830db5934e8b363460405161036591815260200190565b60405180910390a4505050565b80356001600160a01b038116811461038957600080fd5b919050565b6000602082840312156103a057600080fd5b6103a982610372565b9392505050565b6000602082840312156103c257600080fd5b5035919050565b60008083601f8401126103db57600080fd5b50813567ffffffffffffffff8111156103f357600080fd5b60208301915083602082850101111561040b57600080fd5b9250929050565b6000806000806040858703121561042857600080fd5b843567ffffffffffffffff8082111561044057600080fd5b61044c888389016103c9565b9096509450602087013591508082111561046557600080fd5b50610472878288016103c9565b95989497509550505050565b6000806040838503121561049157600080fd5b61049a83610372565b946020939093013593505050565b81835281816020850137506000828201602090810191909152601f909101601f19169091010190565b6040815260006104e56040830186886104a8565b82810360208401526104f88185876104a8565b97965050505050505056fea26469706673582212207da644d3b40af981602be7399a20ed44107e1cc3fab57a58bce620941aec356d64736f6c63430008140033","opcodes":"PUSH1 0x80 PUSH1 0x40 MSTORE CALLVALUE DUP1 ISZERO PUSH2 0x10 JUMPI PUSH1 0x0 DUP1 REVERT JUMPDEST POP PUSH2 0x539 DUP1 PUSH2 0x20 PUSH1 0x0 CODECOPY PUSH1 0x0 RETURN INVALID PUSH1 0x80 PUSH1 0x40 MSTORE PUSH1 0x4 CALLDATASIZE LT PUSH2 0x3F JUMPI PUSH1 0x0 CALLDATALOAD PUSH1 0xE0 SHR DUP1 PUSH4 0xC4045CA6 EQ PUSH2 0x44 JUMPI DUP1 PUSH4 0xE1FA8E84 EQ PUSH2 0x83 JUMPI DUP1 PUSH4 0xEA1D8096 EQ PUSH2 0xA5 JUMPI DUP1 PUSH4 0xFD91FD10 EQ PUSH2 0xC5 JUMPI JUMPDEST PUSH1 0x0 DUP1 REVERT JUMPDEST CALLVALUE DUP1 ISZERO PUSH2 0x50 JUMPI PUSH1 0x0 DUP1 REVERT JUMPDEST POP PUSH2 0x71 PUSH2 0x5F CALLDATASIZE PUSH1 0x4 PUSH2 0x38E JUMP JUMPDEST PUSH1 0x0 PUSH1 0x20 DUP2 SWAP1 MSTORE SWAP1 DUP2 MSTORE PUSH1 0x40 SWAP1 KECCAK256 SLOAD DUP2 JUMP JUMPDEST PUSH1 0x40 MLOAD SWAP1 DUP2 MSTORE PUSH1 0x20 ADD PUSH1 0x40 MLOAD DUP1 SWAP2 SUB SWAP1 RETURN JUMPDEST CALLVALUE DUP1 ISZERO PUSH2 0x8F JUMPI PUSH1 0x0 DUP1 REVERT JUMPDEST POP PUSH2 0xA3 PUSH2 0x9E CALLDATASIZE PUSH1 0x4 PUSH2 0x3B0 JUMP JUMPDEST PUSH2 0xD8 JUMP JUMPDEST STOP JUMPDEST CALLVALUE DUP1 ISZERO PUSH2 0xB1 JUMPI PUSH1 0x0 DUP1 REVERT JUMPDEST POP PUSH2 0xA3 PUSH2 0xC0 CALLDATASIZE PUSH1 0x4 PUSH2 0x412 JUMP JUMPDEST PUSH2 0x196 JUMP JUMPDEST PUSH2 0xA3 PUSH2 0xD3 CALLDATASIZE PUSH1 0x4 PUSH2 0x47E JUMP JUMPDEST PUSH2 0x233 JUMP JUMPDEST DUP1 PUSH2 0x113 JUMPI PUSH1 0x40 MLOAD PUSH3 0x461BCD PUSH1 0xE5 SHL DUP2 MSTORE PUSH1 0x20 PUSH1 0x4 DUP3 ADD MSTORE PUSH1 0x6 PUSH1 0x24 DUP3 ADD MSTORE PUSH6 0x18985917DA59 PUSH1 0xD2 SHL PUSH1 0x44 DUP3 ADD MSTORE PUSH1 0x64 ADD JUMPDEST PUSH1 0x40 MLOAD DUP1 SWAP2 SUB SWAP1 REVERT JUMPDEST CALLER PUSH1 0x0 SWAP1 DUP2 MSTORE PUSH1 0x20 DUP2 SWAP1 MSTORE PUSH1 0x40 SWAP1 KECCAK256 SLOAD ISZERO PUSH2 0x159 JUMPI PUSH1 0x40 MLOAD PUSH3 0x461BCD PUSH1 0xE5 SHL DUP2 MSTORE PUSH1 0x20 PUSH1 0x4 DUP3 ADD MSTORE PUSH1 0x6 PUSH1 0x24 DUP3 ADD MSTORE PUSH6 0x657869737473 PUSH1 0xD0 SHL PUSH1 0x44 DUP3 ADD MSTORE PUSH1 0x64 ADD PUSH2 0x10A JUMP JUMPDEST CALLER PUSH1 0x0 DUP2 DUP2 MSTORE PUSH1 0x20 DUP2 SWAP1 MSTORE PUSH1 0x40 DUP1 DUP3 KECCAK256 DUP5 SWAP1 SSTORE MLOAD DUP4 SWAP3 SWAP2 PUSH32 0x2F1F603FDBF809C5197D557D6FE61C1FD7F3CE5E6D39CC413670069565749437 SWAP2 LOG3 POP JUMP JUMPDEST CALLER PUSH1 0x0 SWAP1 DUP2 MSTORE PUSH1 0x20 DUP2 SWAP1 MSTORE PUSH1 0x40 SWAP1 KECCAK256 SLOAD DUP1 PUSH2 0x1E4 JUMPI PUSH1 0x40 MLOAD PUSH3 0x461BCD PUSH1 0xE5 SHL DUP2 MSTORE PUSH1 0x20 PUSH1 0x4 DUP3 ADD MSTORE PUSH1 0xE PUSH1 0x24 DUP3 ADD MSTORE PUSH14 0x1B9BDD17DC9959DA5CDD195C9959 PUSH1 0x92 SHL PUSH1 0x44 DUP3 ADD MSTORE PUSH1 0x64 ADD PUSH2 0x10A JUMP JUMPDEST DUP1 CALLER PUSH1 0x1 PUSH1 0x1 PUSH1 0xA0 SHL SUB AND PUSH32 0x5DB528A6C3F96747CD725C5FB451CB8ADBD8D3776192DE319E907454270DFF69 DUP8 DUP8 DUP8 DUP8 PUSH1 0x40 MLOAD PUSH2 0x224 SWAP5 SWAP4 SWAP3 SWAP2 SWAP1 PUSH2 0x4D1 JUMP JUMPDEST PUSH1 0x40 MLOAD DUP1 SWAP2 SUB SWAP1 LOG3 POP POP POP POP POP JUMP JUMPDEST PUSH1 0x1 PUSH1 0x1 PUSH1 0xA0 SHL SUB DUP3 AND PUSH1 0x0 SWAP1 DUP2 MSTORE PUSH1 0x20 DUP2 SWAP1 MSTORE PUSH1 0x40 SWAP1 KECCAK256 SLOAD DUP2 EQ DUP1 ISZERO PUSH2 0x259 JUMPI POP DUP1 ISZERO ISZERO JUMPDEST PUSH2 0x291 JUMPI PUSH1 0x40 MLOAD PUSH3 0x461BCD PUSH1 0xE5 SHL DUP2 MSTORE PUSH1 0x20 PUSH1 0x4 DUP3 ADD MSTORE PUSH1 0x9 PUSH1 0x24 DUP3 ADD MSTORE PUSH9 0x18985917D859D95B9D PUSH1 0xBA SHL PUSH1 0x44 DUP3 ADD MSTORE PUSH1 0x64 ADD PUSH2 0x10A JUMP JUMPDEST PUSH1 0x0 DUP3 PUSH1 0x1 PUSH1 0x1 PUSH1 0xA0 SHL SUB AND CALLVALUE PUSH1 0x40 MLOAD PUSH1 0x0 PUSH1 0x40 MLOAD DUP1 DUP4 SUB DUP2 DUP6 DUP8 GAS CALL SWAP3 POP POP POP RETURNDATASIZE DUP1 PUSH1 0x0 DUP2 EQ PUSH2 0x2DE JUMPI PUSH1 0x40 MLOAD SWAP2 POP PUSH1 0x1F NOT PUSH1 0x3F RETURNDATASIZE ADD AND DUP3 ADD PUSH1 0x40 MSTORE RETURNDATASIZE DUP3 MSTORE RETURNDATASIZE PUSH1 0x0 PUSH1 0x20 DUP5 ADD RETURNDATACOPY PUSH2 0x2E3 JUMP JUMPDEST PUSH1 0x60 SWAP2 POP JUMPDEST POP POP SWAP1 POP DUP1 PUSH2 0x31F JUMPI PUSH1 0x40 MLOAD PUSH3 0x461BCD PUSH1 0xE5 SHL DUP2 MSTORE PUSH1 0x20 PUSH1 0x4 DUP3 ADD MSTORE PUSH1 0x8 PUSH1 0x24 DUP3 ADD MSTORE PUSH8 0x1D1A5C17D9985A5B PUSH1 0xC2 SHL PUSH1 0x44 DUP3 ADD MSTORE PUSH1 0x64 ADD PUSH2 0x10A JUMP JUMPDEST DUP2 DUP4 PUSH1 0x1 PUSH1 0x1 PUSH1 0xA0 SHL SUB AND CALLER PUSH1 0x1 PUSH1 0x1 PUSH1 0xA0 SHL SUB AND PUSH32 0x4EA58B343DB870DC3AD0DE2A1B2284D71239D24F159D676B04830DB5934E8B36 CALLVALUE PUSH1 0x40 MLOAD PUSH2 0x365 SWAP2 DUP2 MSTORE PUSH1 0x20 ADD SWAP1 JUMP JUMPDEST PUSH1 0x40 MLOAD DUP1 SWAP2 SUB SWAP1 LOG4 POP POP POP JUMP JUMPDEST DUP1 CALLDATALOAD PUSH1 0x1 PUSH1 0x1 PUSH1 0xA0 SHL SUB DUP2 AND DUP2 EQ PUSH2 0x389 JUMPI PUSH1 0x0 DUP1 REVERT JUMPDEST SWAP2 SWAP1 POP JUMP JUMPDEST PUSH1 0x0 PUSH1 0x20 DUP3 DUP5 SUB SLT ISZERO PUSH2 0x3A0 JUMPI PUSH1 0x0 DUP1 REVERT JUMPDEST PUSH2 0x3A9 DUP3 PUSH2 0x372 JUMP JUMPDEST SWAP4 SWAP3 POP POP POP JUMP JUMPDEST PUSH1 0x0 PUSH1 0x20 DUP3 DUP5 SUB SLT ISZERO PUSH2 0x3C2 JUMPI PUSH1 0x0 DUP1 REVERT JUMPDEST POP CALLDATALOAD SWAP2 SWAP1 POP JUMP JUMPDEST PUSH1 0x0 DUP1 DUP4 PUSH1 0x1F DUP5 ADD SLT PUSH2 0x3DB JUMPI PUSH1 0x0 DUP1 REVERT JUMPDEST POP DUP2 CALLDATALOAD PUSH8 0xFFFFFFFFFFFFFFFF DUP2 GT ISZERO PUSH2 0x3F3 JUMPI PUSH1 0x0 DUP1 REVERT JUMPDEST PUSH1 0x20 DUP4 ADD SWAP2 POP DUP4 PUSH1 0x20 DUP3 DUP6 ADD ADD GT ISZERO PUSH2 0x40B JUMPI PUSH1 0x0 DUP1 REVERT JUMPDEST SWAP3 POP SWAP3 SWAP1 POP JUMP JUMPDEST PUSH1 0x0 DUP1 PUSH1 0x0 DUP1 PUSH1 0x40 DUP6 DUP8 SUB SLT ISZERO PUSH2 0x428 JUMPI PUSH1 0x0 DUP1 REVERT JUMPDEST DUP5 CALLDATALOAD PUSH8 0xFFFFFFFFFFFFFFFF DUP1 DUP3 GT ISZERO PUSH2 0x440 JUMPI PUSH1 0x0 DUP1 REVERT JUMPDEST PUSH2 0x44C DUP9 DUP4 DUP10 ADD PUSH2 0x3C9 JUMP JUMPDEST SWAP1 SWAP7 POP SWAP5 POP PUSH1 0x20 DUP8 ADD CALLDATALOAD SWAP2 POP DUP1 DUP3 GT ISZERO PUSH2 0x465 JUMPI PUSH1 0x0 DUP1 REVERT JUMPDEST POP PUSH2 0x472 DUP8 DUP3 DUP9 ADD PUSH2 0x3C9 JUMP JUMPDEST SWAP6 SWAP9 SWAP5 SWAP8 POP SWAP6 POP POP POP POP JUMP JUMPDEST PUSH1 0x0 DUP1 PUSH1 0x40 DUP4 DUP6 SUB SLT ISZERO PUSH2 0x491 JUMPI PUSH1 0x0 DUP1 REVERT JUMPDEST PUSH2 0x49A DUP4 PUSH2 0x372 JUMP JUMPDEST SWAP5 PUSH1 0x20 SWAP4 SWAP1 SWAP4 ADD CALLDATALOAD SWAP4 POP POP POP JUMP JUMPDEST DUP2 DUP4 MSTORE DUP2 DUP2 PUSH1 0x20 DUP6 ADD CALLDATACOPY POP PUSH1 0x0 DUP3 DUP3 ADD PUSH1 0x20 SWAP1 DUP2 ADD SWAP2 SWAP1 SWAP2 MSTORE PUSH1 0x1F SWAP1 SWAP2 ADD PUSH1 0x1F NOT AND SWAP1 SWAP2 ADD ADD SWAP1 JUMP JUMPDEST PUSH1 0x40 DUP2 MSTORE PUSH1 0x0 PUSH2 0x4E5 PUSH1 0x40 DUP4 ADD DUP7 DUP9 PUSH2 0x4A8 JUMP JUMPDEST DUP3 DUP2 SUB PUSH1 0x20 DUP5 ADD MSTORE PUSH2 0x4F8 DUP2 DUP6 DUP8 PUSH2 0x4A8 JUMP JUMPDEST SWAP8 SWAP7 POP POP POP POP POP POP POP JUMP INVALID LOG2 PUSH5 0x6970667358 0x22 SLT KECCAK256 PUSH30 0xA644D3B40AF981602BE7399A20ED44107E1CC3FAB57A58BCE620941AEC35 PUSH14 0x64736F6C63430008140033000000 "},"methodIdentifiers":{"act(string,string)":"ea1d8096","agentIdByOwner(address)":"c4045ca6","register(bytes32)":"e1fa8e84","tip(address,bytes32)":"fd91fd10"}}}}}