{
  "_format": "hh-sol-artifact-1",
  "contractName": "MeapRegistry",
  "sourceName": "contracts/MeapRegistry.sol",
  "abi": [
    {
      "anonymous": false,
      "inputs": [
        {
          "indexed": true,
          "internalType": "address",
          "name": "owner",
          "type": "address"
        },
        {
          "indexed": true,
          "internalType": "bytes32",
          "name": "agentId",
          "type": "bytes32"
        },
        {
          "indexed": false,
          "internalType": "string",
          "name": "kind",
          "type": "string"
        },
        {
          "indexed": false,
          "internalType": "string",
          "name": "payload",
          "type": "string"
        }
      ],
      "name": "AgentAction",
      "type": "event"
    },
    {
      "anonymous": false,
      "inputs": [
        {
          "indexed": true,
          "internalType": "address",
          "name": "owner",
          "type": "address"
        },
        {
          "indexed": true,
          "internalType": "bytes32",
          "name": "agentId",
          "type": "bytes32"
        }
      ],
      "name": "AgentRegistered",
      "type": "event"
    },
    {
      "anonymous": false,
      "inputs": [
        {
          "indexed": true,
          "internalType": "address",
          "name": "tipper",
          "type": "address"
        },
        {
          "indexed": true,
          "internalType": "address",
          "name": "owner",
          "type": "address"
        },
        {
          "indexed": true,
          "internalType": "bytes32",
          "name": "agentId",
          "type": "bytes32"
        },
        {
          "indexed": false,
          "internalType": "uint256",
          "name": "amount",
          "type": "uint256"
        }
      ],
      "name": "AgentTipped",
      "type": "event"
    },
    {
      "inputs": [
        {
          "internalType": "string",
          "name": "kind",
          "type": "string"
        },
        {
          "internalType": "string",
          "name": "payload",
          "type": "string"
        }
      ],
      "name": "act",
      "outputs": [],
      "stateMutability": "nonpayable",
      "type": "function"
    },
    {
      "inputs": [
        {
          "internalType": "address",
          "name": "",
          "type": "address"
        }
      ],
      "name": "agentIdByOwner",
      "outputs": [
        {
          "internalType": "bytes32",
          "name": "",
          "type": "bytes32"
        }
      ],
      "stateMutability": "view",
      "type": "function"
    },
    {
      "inputs": [
        {
          "internalType": "bytes32",
          "name": "agentId",
          "type": "bytes32"
        }
      ],
      "name": "register",
      "outputs": [],
      "stateMutability": "nonpayable",
      "type": "function"
    },
    {
      "inputs": [
        {
          "internalType": "address",
          "name": "owner",
          "type": "address"
        },
        {
          "internalType": "bytes32",
          "name": "agentId",
          "type": "bytes32"
        }
      ],
      "name": "tip",
      "outputs": [],
      "stateMutability": "payable",
      "type": "function"
    }
  ],
  "bytecode": "0x608060405234801561001057600080fd5b50610539806100206000396000f3fe60806040526004361061003f5760003560e01c8063c4045ca614610044578063e1fa8e8414610083578063ea1d8096146100a5578063fd91fd10146100c5575b600080fd5b34801561005057600080fd5b5061007161005f36600461038e565b60006020819052908152604090205481565b60405190815260200160405180910390f35b34801561008f57600080fd5b506100a361009e3660046103b0565b6100d8565b005b3480156100b157600080fd5b506100a36100c0366004610412565b610196565b6100a36100d336600461047e565b610233565b806101135760405162461bcd60e51b815260206004820152600660248201526518985917da5960d21b60448201526064015b60405180910390fd5b33600090815260208190526040902054156101595760405162461bcd60e51b815260206004820152600660248201526565786973747360d01b604482015260640161010a565b33600081815260208190526040808220849055518392917f2f1f603fdbf809c5197d557d6fe61c1fd7f3ce5e6d39cc41367006956574943791a350565b33600090815260208190526040902054806101e45760405162461bcd60e51b815260206004820152600e60248201526d1b9bdd17dc9959da5cdd195c995960921b604482015260640161010a565b80336001600160a01b03167f5db528a6c3f96747cd725c5fb451cb8adbd8d3776192de319e907454270dff698787878760405161022494939291906104d1565b60405180910390a35050505050565b6001600160a01b0382166000908152602081905260409020548114801561025957508015155b6102915760405162461bcd60e51b815260206004820152600960248201526818985917d859d95b9d60ba1b604482015260640161010a565b6000826001600160a01b03163460405160006040518083038185875af1925050503d80600081146102de576040519150601f19603f3d011682016040523d82523d6000602084013e6102e3565b606091505b505090508061031f5760405162461bcd60e51b81526020600482015260086024820152671d1a5c17d9985a5b60c21b604482015260640161010a565b81836001600160a01b0316336001600160a01b03167f4ea58b343db870dc3ad0de2a1b2284d71239d24f159d676b04830db5934e8b363460405161036591815260200190565b60405180910390a4505050565b80356001600160a01b038116811461038957600080fd5b919050565b6000602082840312156103a057600080fd5b6103a982610372565b9392505050565b6000602082840312156103c257600080fd5b5035919050565b60008083601f8401126103db57600080fd5b50813567ffffffffffffffff8111156103f357600080fd5b60208301915083602082850101111561040b57600080fd5b9250929050565b6000806000806040858703121561042857600080fd5b843567ffffffffffffffff8082111561044057600080fd5b61044c888389016103c9565b9096509450602087013591508082111561046557600080fd5b50610472878288016103c9565b95989497509550505050565b6000806040838503121561049157600080fd5b61049a83610372565b946020939093013593505050565b81835281816020850137506000828201602090810191909152601f909101601f19169091010190565b6040815260006104e56040830186886104a8565b82810360208401526104f88185876104a8565b97965050505050505056fea26469706673582212207da644d3b40af981602be7399a20ed44107e1cc3fab57a58bce620941aec356d64736f6c63430008140033",
  "linkReferences": {},
  "deployedLinkReferences": {}
}